:100000000EC01DC01CC01BC01AC019C018C017C02C
:1000100016C015C014C013C012C011C010C01124E6
:100020001FBECFE5D2E0DEBFCDBF20E0A0E6B0E04E
:1000300001C01D92A136B207E1F7E9D017C1E0CFA8
:100040006AE070E0FFD06115710549F083EC99E03A
:100050000197F1F700C0000061507109F4CF0895D5
:10006000C09AC29ABA9AB89A8FEF8FB98AE28DB9BC
:1000700080EF8EB908958091600008958EB98BE26B
:1000800000C000C000008DB9B29BFECF00C000C010
:100090008DB9769BF5CF00C000C000008FB19FEFF7
:1000A0009FB9B89A0895C29AC29BFECF00C000C003
:1000B0000000C09800C000C0C298C09A779905C0DF
:1000C00083E08093600080E0089581E00895C09807
:1000D000C29AB29BFECF00C000C0C09A00C000C050
:1000E00000009EB1892F807295FD04C094E090932A
:1000F0006000089581E00895AF92BF92CF92DF92A1
:10010000EF92FF920F931F93CF93DF93EC01C62ED4
:1001100080916000816080936000988190FD03C0B1
:10012000826080936000BFDF982F882309F458C055
:10013000FC2C8E01BB24BA94AA24A39420916000C5
:100140002370C8010196222371F1C298D82EE92E9E
:10015000F80180818FB980EF91DFB8988EEF8EDF44
:100160002091600080FF0AC0922F917020FF04C090
:1001700081E08093600033C082E00EC0822F8570E2
:10018000843069F4888181608883A09260008BDF6D
:10019000982F811118C08AE08093600021C02E7FC3
:1001A0002093600013C0B898D82EE92E80EF66DF48
:1001B000F8018083F1E0FF1202C0BFB801C01FB890
:1001C0008EEF5CDF03C0FC2CDC2EED2EFA9419F0D0
:1001D0000D2D1E2DB3CF7BDF91E0811101C090E08A
:1001E000892FDF91CF911F910F91FF90EF90DF90BA
:1001F000CF90BF90AF900895FC0120812E7F208387
:1002000024E02093600078CF1092600075CFCF93E8
:10021000DF9300D000D01F92CDB7DEB721DF00ED15
:1002200011ED098362E0CE010196EEDF82E390E0FA
:1002300007DF198363E0CE010196E6DF84EF91E0EA
:10024000FFDEEFCFAA1BBB1B51E107C0AA1FBB1FDC
:10025000A617B70710F0A61BB70B881F991F5A9552
:10026000A9F780959095BC01CD010895F894FFCF32
:00000001FF
