:100000000EC015C014C013C012C011C010C00FC064
:100010000EC00DC00CC00BC00AC009C008C011241E
:100020001FBECFE5D2E0DEBFCDBF3FD058C0E8CF86
:100030006AE070E040D06115710549F083EC99E009
:100040000197F1F700C0000061507109F4CF0895E5
:10005000BD9A86B1876086B93E9A3F9883B1887F02
:1000600083B9359A379A369A0895F2DF24B135B1BB
:1000700081E090E01216130614F080E090E00895FD
:1000800087B5866087BD80B7836080BF80E88BBD01
:100090008FEF8DBDBC9A8CB580638CBD8CB58064B0
:1000A0008CBD80B7806180BF0895D2DFDEDF892BF1
:1000B000E9F7E6DFFBCFAA1BBB1B51E107C0AA1F74
:1000C000BB1FA617B70710F0A61BB70B881F991FF9
:1000D0005A95A9F780959095BC01CD010895F894A3
:0200E000FFCF50
:00000001FF
