:100000000EC015C014C013C012C011C010C00FC064
:100010000EC00DC00CC00BC00AC009C008C011241E
:100020001FBECFE5D2E0DEBFCDBF5BD073C0E8CF4F
:100030006AE070E05BD06115710549F083EC99E0EE
:100040000197F1F700C0000061507109F4CF0895E5
:1000500087B317BA86B116B883B113B887B117B88A
:1000600087B517BC80B710BE8BB51BBC8DB51DBC4A
:100070008CB51CBC089587B517BC80B710BE8BB576
:100080001BBC8DB51DBC8CB51CBC0895389A3D9A1F
:1000900086B1836886B90895369A3699FECF24B121
:1000A00035B181E090E0232B11F480E090E00895D9
:1000B00087B5866087BD80B7836080BF80E88BBDD1
:1000C0008FEF8DBDBC9A8CB580638CBD8CB5806480
:1000D0008CBD80B7806180BF88EE93E0A9DFBC98BB
:1000E000FFCFD4DFD9DF892BE9F7E2DFAA1BBB1BE7
:1000F00051E107C0AA1FBB1FA617B70710F0A61B28
:10010000B70B881F991F5A95A9F780959095BC0148
:08011000CD010895F894FFCF22
:00000001FF
