:100000000EC015C014C013C012C011C010C00FC064
:100010000EC00DC00CC00BC00AC009C008C011241E
:100020001FBECFE5D2E0DEBFCDBF64D07CC0E8CF3D
:100030006AE070E064D06115710549F083EC99E0E5
:100040000197F1F700C0000061507109F4CF0895E5
:1000500087B317BA86B116B883B113B887B117B88A
:1000600087B517BC80B710BE8BB51BBC8DB51DBC4A
:100070008CB51CBC089587B517BC80B710BE8BB576
:100080001BBC8DB51DBC8CB51CBC0895BD9A86B13A
:10009000876086B93E9A3F9883B1887F83B9359A45
:1000A000379A369A089584B195B11816190654F006
:1000B000B89AC098C09A84EF91E0BADFC09880E007
:1000C00090E0089581E090E0089587B5866087BD4F
:1000D00080B7836080BF80E88BBD8FEF8DBDBC9AF9
:1000E0008CB580638CBD8CB580648CBD80B780611D
:1000F00080BF0895D8DF892BE9F7E7DFFBCFAA1B84
:10010000BB1B51E107C0AA1FBB1FA617B70710F002
:10011000A61BB70B881F991F5A95A9F78095909534
:0A012000BC01CD010895F894FFCF53
:00000001FF
